S0230000636172696F6D6172745F6D73735F4D53535F434D335F305F6170702E73726563EA
S315200000000000012099020020090300200B03002094
S315200000100D0300200F030020110300200000000024
S315200000200000000000000000000000001303002074
S3152000003015030020000000001703002019030020EC
S315200000401B0300201D0300201F0300202103002086
S315200000502303002025030020270300202903002056
S315200000602B0300202D0300207D110020A911002044
S3152000007033030020350300203703002039030020F6
S315200000803B0300203D0300203F03002041030020C6
S315200000904303002045030020470300204903002096
S315200000A04B030020000000000000000000000000BC
S315200000B00000000000000000000000004D030020AA
S315200000C04F03002051030020530300205503002036
S315200000D057030020590300205B0300205D03002006
S315200000E05F030020610300206303002065030020D6
S315200000F067030020690300206B0300206D030020A6
S315200001006F03002071030020730300207503002075
S3152000011077030020790300207B0300207D03002045
S315200001207F03002081030020830300208503002015
S3152000013087030020890300208B0300208D030020E5
S315200001408F030020910300209303002095030020B5
S3152000015097030020990300209B0300209D03002085
S315200001609F030020A1030020A3030020A503002055
S31520000170A7030020A9030020AB030020AD03002025
S31520000180AF030020B1030020B3030020B5030020F5
S31520000190B7030020B9030020BB030020BD030020C5
S315200001A0BF030020C1030020C3030020C503002095
S315200001B0C7030020C9030020CB030020CD03002065
S315200001C0CF030020D1030020D3030020D503002035
S315200001D0D7030020D9030020DB030020DD03002005
S315200001E0DF030020E1030020E3030020E5030020D5
S315200001F0E7030020E9030020EB030020ED030020A5
S31520000200EF030020F1030020F3030020F503002074
S31520000210F7030020F9030020E51700200D18002021
S31520000220351800205D18002085180020AD18002004
S31520000230D5180020FD180020251900204D19002072
S31520000240751900209D190020C5190020ED190020E0
S31520000250151A00203D1A0020651A00208D1A00204C
S31520000260B51A0020DD1A0020051B00202D1B0020BA
S31520000270551B00207D1B0020A51B0020CD1B002028
S31520000280F51B00201D1C0020451C00206D1C002095
S31520000290951C0020BD1C002068488047684800281F
S315200002A00BD168486849694A884206D091421CBFEA
S315200002B050F8043B41F8043BF8D165486549664A45
S315200002C0884206D091421CBF50F8043B41F8043BBB
S315200002D0F8D162486249634A914218BF41F8040B3B
S315200002E0FAD100000000000000000000000000001D
S315200002F0DFF874010FF2030E00474FF000004FF0B5
S315200003000001DFF868F1FEE7FEE7FEE7FEE7FEE71D
S31520000310FEE7FEE7FEE7FEE7FEE7FEE7FEE7FEE78F
S31520000320FEE7FEE7FEE7FEE7FEE7FEE7FEE7FEE77F
S31520000330FEE7FEE7FEE7FEE7FEE7FEE7FEE7FEE76F
S31520000340FEE7FEE7FEE7FEE7FEE7FEE7FEE7FEE75F
S31520000350FEE7FEE7FEE7FEE7FEE7FEE7FEE7FEE74F
S31520000360FEE7FEE7FEE7FEE7FEE7FEE7FEE7FEE73F
S31520000370FEE7FEE7FEE7FEE7FEE7FEE7FEE7FEE72F
S31520000380FEE7FEE7FEE7FEE7FEE7FEE7FEE7FEE71F
S31520000390FEE7FEE7FEE7FEE7FEE7FEE7FEE7FEE70F
S315200003A0FEE7FEE7FEE7FEE7FEE7FEE7FEE7FEE7FF
S315200003B0FEE7FEE7FEE7FEE7FEE7FEE7FEE7FEE7EF
S315200003C0FEE7FEE7FEE7FEE7FEE7FEE7FEE7FEE7DF
S315200003D0FEE7FEE7FEE7FEE7FEE7FEE7FEE7FEE7CF
S315200003E0FEE7FEE7FEE7FEE7FEE7FEE7FEE7FEE7BF
S315200003F0FEE7FEE7FEE7FEE7FEE7FEE7FEE7FEE7AF
S31520000400FEE7FEE7FEE7FEE7FEE7FEE7FEE7FEE79E
S31520000410FEE7FEE7FEE7FEE7FEE7FEE7FEE7FEE78E
S31520000420FEE7FEE7FEE7FEE7FEE7FEE7FEE7FEE77E
S31520000430FEE7FEE7FEE7FEE7FEE700009113002059
S31520000440000000000000002000000020D02A00202C
S31520000450D02A0020D02A00200030002000000000F2
S3152000046000300020B0300020E51C0020B904002018
S3152000047043F20003C2F200031A780AB90120187069
S31520000480704700BF42F6D020C2F2000008B50368CC
S315200004902BB140F20003C0F2000303B1984708BD18
S315200004A080B400AF43F20003C4F20103D3F88430D2
S315200004B01846BD4680BC704790B58BB000AF00F0A3
S315200004C0FBFE00F045F900F0A3FE4FF000004FF0D0
S315200004D0020100F0D3FE4FF001004FF0020100F0C0
S315200004E0CDFE42F62C10C2F2000000F0EDFE0346CF
S315200004F01A4643F25003C2F200031A7040F28F23C9
S315200005003B8300E000BF43F25403C2F200031B68A2
S31520000510002BF7D043F25003C2F200031B78184693
S3152000052000F00CFF03464FEA93039AB23B8BC3EBD2
S3152000053002039BB203F5A67303F103037B83FFF744
S31520000540AFFF034603F003024AF6AB23CAF6AA23FB
S31520000550A3FB02134FEA53010B464FEA43030B4416
S31520000560C3EB0203FB6142F632437B6007F10803CB
S315200005704FF000021A6003F104034FF000021A60E4
S3152000058003F104034FF000021A6003F104034FF055
S3152000059000021A6003F10403FB69184600F06EF8A6
S315200005A003463B623B6A1B78002B12D107F10404F9
S315200005B007F10403184602F001F8034623441846BF
S315200005C042F64011C2F200014FF0020201F094FE01
S315200005D005E007F104031846396A01F06DFF386A11
S315200005E001F0A8FB07F10403184642F64411C2F2B3
S315200005F0000101F061FF7B8B184600F03FF80346AF
S315200006007B6207F104031846796A01F055FF786A80
S3152000061001F090FB07F10403184642F64811C2F296
S31520000620000101F049FF07F10403184600F0AAF87B
S3152000063069E700BF80B485B000AF78604FF0000353
S31520000640FB6011E0FB6803F10103FB607A6846F268
S315200006506763C6F2666383FB02134FEAA3014FEA80
S31520000660E273C3EB01037B607B68002BEADCFB684B
S31520000670184607F11407BD4680BC704780B584B084
S3152000068000AF78604FF00003FB607B68002B07DA31
S315200006907B68C3F100037B60FB6803F10103FB6009
S315200006A07868FFF7C7FF0346FA681344FB60FB68C8
S315200006B003F10103184601F045FB0346BB60FA68C7
S315200006C0BB6813444FF000021A7031E0FB6803F157
S315200006D0FF32BB6802EB0300796846F26763C6F215
S315200006E0666383FB01234FEAA3024FEAE173C3EB60
S315200006F0020213464FEA830313444FEA4303C3EB34
S315200007000102D3B203F13003DBB203707A6846F2FA
S315200007106763C6F2666383FB02134FEAA3014FEABF
S31520000720E273C3EB01037B60FB6803F1FF33FB60DD
S315200007307B68002BCADCFB68012B03D1BB684FF01A
S315200007402D021A70BB68184607F11007BD4680BDFA
S3152000075080B500AF43F25800C2F200004FF4E131F9
S315200007604FF0030200F05AF943F25800C2F200009B
S3152000077040F2A571C2F200014FF0000200F0AAFC7F
S3152000078080BD00BF80B582B000AF786043F25800CC
S31520000790C2F20000796800F0B5FA07F10807BD46F5
S315200007A080BD00BF80B594B000AF786007F14003EC
S315200007B0786819464FF0010200F00CFB03467B6473
S315200007C097F840300D2B03D097F840300A2B09D1EB
S315200007D007F14003786819464FF0010200F0FAFA53
S315200007E003467B6497F840300D2B03D097F84030B2
S315200007F00A2B09D107F14003786819464FF0010208
S3152000080000F0E8FA03467B644FF00003BB644FF028
S315200008100003FB6420E07B6C002B0FDDBB6C97F89C
S31520000820402007F150010B4403F8442CBB6C03F124
S315200008300103BB644FF00003FB6403E0FB6C03F190
S315200008400103FB6407F14003786819464FF0010263
S3152000085000F0C0FA03467B6497F840300A2B0BD091
S3152000086097F840300D2B07D0BB6C312B04DCFA6C8B
S3152000087040F2F3139A42CEDDBB6C07F150021344CB
S315200008804FF0000203F8442C3B7B302B09D1BB7B75
S31520000890302B0CBF0022012243F25403C2F2000384
S315200008A01A6007F15007BD4680BD00BF80B483B0F3
S315200008B000AF7860FEE700BF80B584B000AFF86077
S315200008C0B9607A603B6043F20403C2F200031B68FE
S315200008D0002B10D143F28000C2F200004FF4614198
S315200008E04FF0030200F09AF843F20403C2F2000329
S315200008F04FF001021A603B6843F28000C2F200000A
S3152000090079681A4600F08CF93B68184607F11007FB
S31520000910BD4680BD80B584B000AF786043F2080341
S31520000920C2F200031B68002B08D143F20803C2F26F
S31520000930000343F2B002C2F200021A6043F2080337
S31520000940C2F200031B68BB60EFF30883FB6043F22F
S315200009500803C2F200031A687B681A44FB689A42AD
S315200009600FD94FF000004FF0010142F64C12C2F2AF
S3152000097000024FF01903FFF79FFF4FF00100FFF72A
S3152000098095FF43F20803C2F200031A687B681A44F3
S3152000099043F20803C2F200031A60BB68184607F147
S315200009A01007BD4680BD00BF80B483B000AF0346AC
S315200009B0FB804EF20013CEF20003B7F906204FEA71
S315200009C05212F98801F01F014FF0010000FA01F1DF
S315200009D043F8221007F10C07BD4680BC704700BFC4
S315200009E080B483B000AF0346FB804EF20013CEF2F4
S315200009F00003B7F906204FEA5212F98801F01F01C9
S31520000A004FF0010000FA01F102F1600243F82210D2
S31520000A1007F10C07BD4680BC704700BF80B588B083
S31520000A2000AFF860B9601346FB714FF00103FB82FB
S31520000A304FF00003BB61FA6843F28003C2F2000361
S31520000A409A4207D0FA6843F25803C2F200039A4248
S31520000A5000D000BEBB68002B00D100BE00F09EFC7B
S31520000A60FA6843F28003C2F200039A422ED1FB6851
S31520000A704FF080421A60FB684FF084425A60FB6850
S31520000A804FF00A021A8142F6DC23C2F200031B68E9
S31520000A90BB6142F20003CEF2040342F20002CEF220
S31520000AA00402126B42F080021A634FF00A00FFF72D
S31520000AB097FF42F20003CEF2040342F20002CEF286
S31520000AC00402126B22F080021A6331E0FA6840F2C7
S31520000AD00003C4F201031360FA6840F20003C4F273
S31520000AE020235360FB684FF00B021A8142F6E02365
S31520000AF0C2F200031B68BB6142F20003CEF204037C
S31520000B0042F20002CEF20402126B42F480721A63A1
S31520000B104FF00B00FFF764FF42F20003CEF204030E
S31520000B2042F20002CEF20402126B22F480721A63A1
S31520000B30FB681B684FF000021A71BB68002B21D09E
S31520000B40BA69BB68B2FBF3F3FB61FB6903F00803E8
S31520000B50002B06D0FB694FEA131303F10103FB6157
S31520000B6003E0FB694FEA1313FB61FA694FF6FF7343
S31520000B709A4200D900BEFA694FF6FF739A4201D80D
S31520000B80FB69FB82FB685B684FF00102C3F89C217E
S31520000B90FB681B68FA8A4FEA122292B2D2B21A7105
S31520000BA0FB681B68FA8AD2B21A70FB685B684FF042
S31520000BB00002C3F89C21FB681B68FA791A73FB684C
S31520000BC01B684FF00E021A72FB685B684FF000023A
S31520000BD0C3F81022FB684FF000021A61FB684FF041
S31520000BE00002DA60FB684FF000025A61FB684FF0A2
S31520000BF00002DA61FA6840F6CD73C2F2000313628E
S31520000C00FB684FF000029A61FB684FF000025A62BF
S31520000C10FB684FF000029A7207F12007BD4680BD9F
S31520000C2080B489B000AFF860B9607A604FF00003F5
S31520000C303B61FA6843F28003C2F200039A4207D06E
S31520000C40FA6843F25803C2F200039A4200D000BE6B
S31520000C50BB68002B00D100BE7B68002B00D100BEF4
S31520000C60FA6843F28003C2F200039A4206D0FA6879
S31520000C7043F25803C2F200039A423DD1BB68002BCF
S31520000C803AD07B68002B37D0FB681B681B7DFB7630
S31520000C90FB689A7AFB7E42EA0303DAB2FB689A7211
S31520000CA0FB7E03F02003002B23D04FF01003FB61C3
S31520000CB07B680F2B01D87B68FB614FF000037B61BB
S31520000CC00EE0FB681B68B9683A690A4412781A7004
S31520000CD03B6903F101033B617B6903F101037B61FE
S31520000CE07A69FB699A42ECD37A687B69C3EB020383
S31520000CF07B607B68002BC7D107F12407BD4680BCEB
S31520000D00704700BF80B487B000AF786039604FF07D
S31520000D100003BB607A6843F28003C2F200039A4262
S31520000D2007D07A6843F25803C2F200039A4200D0F1
S31520000D3000BE3B68002B00D100BE7A6843F28003D8
S31520000D40C2F200039A4206D07A6843F25803C2F2EE
S31520000D5000039A4238D13B68002B35D03A68BB68ED
S31520000D6013441B783B612CE07B681B681B7DFB755D
S31520000D707B689A7AFB7D42EA0303DAB27B689A7231
S31520000D80FB7D03F02003002BEED04FF00003FB6029
S31520000D9011E07B681B683A69D2B21A70FB6803F1CE
S31520000DA00103FB60BB6803F10103BB603A68BB68C3
S31520000DB013441B783B613B69002B02D0FB680F2B49
S31520000DC0E7D93B69002BCFD107F11C07BD4680BC74
S31520000DD0704700BF80B487B000AFF860B9607A6012
S31520000DE04FF000033B614FF00003FB75FA6843F2B6
S31520000DF08003C2F200039A4207D0FA6843F25803EE
S31520000E00C2F200039A4200D000BEBB68002B00D17C
S31520000E1000BE7B68002B00D100BEFA6843F2800337
S31520000E20C2F200039A4206D0FA6843F25803C2F28D
S31520000E3000039A4234D1BB68002B31D07B68002B4B
S31520000E402ED0FB681B681B7DFB75FB689A7AFB7DA1
S31520000E5042EA0303DAB2FB689A7217E0BA683B6982
S31520000E601344FA6812681278D2B21A703B6903F1F9
S31520000E7001033B61FB681B681B7DFB75FB689A7A47
S31520000E80FB7D42EA0303DAB2FB689A72FB7D03F02C
S31520000E900103DBB2002B03D03A697B689A42DDD38B
S31520000EA03B69184607F11C07BD4680BC704700BF4A
S31520000EB080B584B000AF78607A6843F28003C2F2CE
S31520000EC000039A4207D07A6843F25803C2F200031D
S31520000ED09A4200D000BE7A6843F28003C2F2000331
S31520000EE09A4206D07A6843F25803C2F200039A4225
S31520000EF067D17B681B681B7ADBB203F00F03FB7399
S31520000F00FB7B0C2B54D801A252F823F0410F002072
S31520000F10B10F00205D0F0020B10F0020790F0020B7
S31520000F20B10F0020950F0020B10F0020B10F002037
S31520000F30B10F0020B10F0020B10F0020790F002043
S31520000F407B685B6A002B00D100BE7B685B6A002B46
S31520000F5030D07B685B6A7868984732E07B681B6A8A
S31520000F60002B00D100BE7B681B6A002B24D07B6837
S31520000F701B6A7868984724E07B68DB69002B00D1E0
S31520000F8000BE7B68DB69002B18D07B68DB6978683C
S31520000F90984716E07B689B69002B00D100BE7B68D2
S31520000FA09B69002B0CD07B689B697868984708E082
S31520000FB000BE06E000BF04E000BF02E000BF00E084
S31520000FC000BF07F11007BD4680BD00BF80B487B0C3
S31520000FD000AF78607A6843F28003C2F200039A4237
S31520000FE007D07A6843F25803C2F200039A4200D02F
S31520000FF000BE7B68DB68002B00D100BE7B681B69C6
S31520001000002B00D100BE7A6843F28003C2F20003AF
S315200010109A4206D07A6843F25803C2F200039A42F3
S3152000102052D17B68DB68002B4ED07B681B69002B76
S315200010304AD07B681B681B7DFB727B689A7AFB7A99
S3152000104042EA0303DAB27B689A72FB7A03F0200342
S31520001050002B29D04FF010033B617B681A697B680F
S315200010605B69C3EB02037B617B690F2B01D87B692C
S315200010703B614FF00003FB6012E07B681B687A68D7
S31520001080D1687A6852690A4412781A707B685B695B
S3152000109003F101027B685A61FB6803F10103FB60DF
S315200010A0FA683B699A42E8D37B685A697B681B6970
S315200010B09A4209D17B684FF000021A617B685B680F
S315200010C04FF00002C3F8842007F11C07BD4680BC00
S315200010D0704700BF80B584B000AFF860B960134692
S315200010E0FB71FA6843F28003C2F200039A4207D0EA
S315200010F0FA6843F25803C2F200039A4200D000BEB7
S31520001100BB68002B00D100BEFB79C02B00D900BEE6
S31520001110FA6843F28003C2F200039A4206D0FA68C4
S3152000112043F25803C2F200039A4223D1BB68002B34
S3152000113020D0FB79C02B1DD8FB68BA68DA61FB6822
S315200011401A68FB7903F0C00343F00A03DBB213727B
S31520001150FB681B891BB21846FFF742FCFB685B68DD
S315200011604FF00102C3F88020FB681B891BB218468A
S31520001170FFF71AFC07F11007BD4680BD684620F030
S3152000118007018D4689B500AF43F28000C2F2000008
S31520001190FFF78EFE4FF00A00FFF722FCBD46BDE8A2
S315200011A089408546704700BF684620F007018D4676
S315200011B089B500AF43F25800C2F20000FFF778FE6F
S315200011C04FF00B00FFF70CFCBD46BDE88940854675
S315200011D0704700BF80B483B000AF0346FB804EF259
S315200011E00013CEF20003B7F906204FEA5212F9880F
S315200011F001F01F014FF0010000FA01F102F1600237
S3152000120043F8221007F10C07BD4680BC704700BF8B
S3152000121080B582B000AF42F20003CEF2040342F260
S315200012200002CEF20402126B42F480421A634FF09F
S3152000123000037B600EE07A6842F6E813C2F20003F0
S3152000124033F812301BB21846FFF7C4FF7B6803F150
S3152000125001037B607B681F2BEDD942F20003CEF29F
S31520001260040342F20002CEF20402126B22F4804200
S315200012701A6307F10807BD4680BD00BF80B485B05C
S3152000128000AF03463960FB71FB79FB60FB681F2BBF
S3152000129000D900BEFB681F2B08D8FA6842F66813EF
S315200012A0C2F2000353F822303A681A6007F1140795
S315200012B0BD4680BC704700BF80B500AF00F082FA03
S315200012C000F088F980BD00BF80B584B000AF78609B
S315200012D04FF00103FB724FF000033B8125E03A8972
S315200012E042F6EC23C2F200034FEA021213441B68B3
S315200012F0002B16D03A8942F6EC23C2F200034FEABD
S31520001300021213441B68786819464FF0100201F048
S3152000131085F90346FB60FB68002B02D13B89FB72F3
S3152000132006E03B8903F101033B813B89002BD6D0A4
S31520001330FB7A184607F11007BD4680BD80B485B0FC
S3152000134000AF0346FB71FA7942F6EC23C2F20003A2
S315200013504FEA02121344DB88FB8140F20003C4F2F9
S315200013600203FA8902F5C06253F822304FEA13438A
S31520001370BB81BB891BB2002B02DA4FF00003BB8175
S31520001380BB89184607F11407BD4680BC704700BFCD
S3152000139080B400AFBD4680BC704700BF80B58AB020
S315200013A000AF42F62823C2F20003BC460FCB8CE8DE
S315200013B00F0042F20003CEF204039B6C4FEA930324
S315200013C003F003034FEA830307F12802134453F87B
S315200013D0283C3B6142F20003CEF204039B6C4FEAA9
S315200013E0131303F003034FEA830307F12802134480
S315200013F053F8283C7B6142F20003CEF204039B6C37
S315200014004FEA931303F003034FEA830307F12802FD
S31520001410134453F8283CBB6142F20003CEF2040386
S31520001420DB6C4FEA132303F01F033B6242F20003F7
S31520001430CEF20403DB6C4FEA533303F001037B62E5
S315200014403B6A03F10103FB617B6A002B03D0FB6936
S315200014504FEA4303FB6100F049F8024642F6D823DF
S31520001460C2F200031A6042F6D823C2F200031A68B9
S315200014703B69B2FBF3F242F6DC23C2F200031A60A8
S3152000148042F6D823C2F200031A687B69B2FBF3F254
S3152000149042F6E023C2F200031A6042F6D823C2F2D3
S315200014A000031A68BB69B2FBF3F242F6E423C2F2E8
S315200014B000031A6042F6D823C2F200031A68FB69B9
S315200014C0B2FBF3F242F6E823C2F200031A6042F6B8
S315200014D0D823C2F200031A6842F6D423C2F20003CC
S315200014E01A6007F12807BD4680BD00BF80B48BB0C7
S315200014F000AF4FF000037B6040F61C03C6F20803E2
S31520001500BB6040F23023C6F20803FB60FB681B6811
S3152000151023F070433B613A6941F2CF13C0F2A153E5
S315200015209A4208D14EF62C73C6F201037B617B6981
S315200015301B687B603DE0BB681A6844F24133C4F601
S3152000154054439A4235D140F64003C6F20803BB61A4
S31520001550BB691B68FB61FB6923F07F43FB61FA696A
S3152000156040F20033C0F201039A4222D9FA694FF6BB
S31520001570FF73C0F201039A4208D841F22C63C6F2E7
S3152000158008033B623B6A1B687B6012E0FA694FF6F0
S31520001590FF73C0F202039A4208D841F6AC63C6F242
S315200015A008037B627B6A1B687B6002E04FF00003C6
S315200015B07B607B68002B05D100BE47F64003C0F256
S315200015C07D137B607B68184607F12C07BD4680BCDF
S315200015D0704700BF80B487B000AF40F20003C4F26A
S315200015E00203D3F8C830FB6040F20003C4F20203C2
S315200015F04FF00002C3F8C8204FF00003FB7139E01A
S31520001600FB794FEA53037B7440F20002C4F20202D4
S31520001610797C0B464FEA43030B444FEA03131344EA
S3152000162003F508731B79BB74FB7903F00103FB7484
S31520001630FB7C002B0DD0F979BB7C4FEA5313DBB230
S315200016401A4602F0030243F20C03C2F200035A5474
S315200016500CE0F979BB7C4FEA5303DBB21A4602F061
S31520001660030243F20C03C2F200035A54FB7903F13E
S315200016700103FB71FB79092BC2D94FF00003BB6034
S3152000168073E0BA6842F6EC23C2F200034FEA021274
S3152000169013441B79BB75BA7D42F67C23C2F2000344
S315200016A09B5C3B75BA7D42F64C23C2F200039B5CE1
S315200016B0012B07D0022B27D0002B47D14FF0000358
S315200016C0FB7547E03B7DFF2B00D100BE40F20002B8
S315200016D0C4F20202397D0B464FEA43030B444FEA1C
S315200016E00313134403F508731B7A7B757B7D03F084
S315200016F00103DBB2002B03D04FF00003FB7529E07A
S315200017004FF00103FB7525E03B7DFF2B00D100BE8A
S3152000171040F20002C4F20202397D0B464FEA43032F
S315200017200B444FEA0313134403F50A731B797B75A5
S315200017307B7D03F00103DBB2002B03D04FF00003C7
S31520001740FB7507E04FF00203FB7503E000BE4FF088
S315200017500003FB75BA6843F21803C2F20003F97D51
S315200017609954BB6803F10103BB60BB68002B88DD7D
S3152000177040F20003C4F20203FA68C3F8C82007F156
S315200017801C07BD4680BC704780B483B000AF0346BB
S31520001790FB804EF20013CEF20003B7F906204FEA83
S315200017A05212F98801F01F014FF0010000FA01F1F1
S315200017B002F1600243F8221007F10C07BD4680BCF7
S315200017C0704700BF80B400AFBD4680BC704700BFE5
S315200017D080B483B000AF0346FB7107F10C07BD460A
S315200017E080BC7047684620F007018D4689B500AF5A
S315200017F04FF00000FFF7ECFF4FF07600FFF7C4FF35
S31520001800BD46BDE889408546704700BF684620F042
S3152000181007018D4689B500AF4FF00100FFF7D8FFCD
S315200018204FF07700FFF7B0FFBD46BDE889408546FB
S31520001830704700BF684620F007018D4689B500AF86
S315200018404FF00200FFF7C4FF4FF07800FFF79CFF30
S31520001850BD46BDE889408546704700BF684620F0F2
S3152000186007018D4689B500AF4FF00300FFF7B0FFA3
S315200018704FF07900FFF788FFBD46BDE889408546D1
S31520001880704700BF684620F007018D4689B500AF36
S315200018904FF00400FFF79CFF4FF07A00FFF774FF2C
S315200018A0BD46BDE889408546704700BF684620F0A2
S315200018B007018D4689B500AF4FF00500FFF788FF79
S315200018C04FF07B00FFF760FFBD46BDE889408546A7
S315200018D0704700BF684620F007018D4689B500AFE6
S315200018E04FF00600FFF774FF4FF07C00FFF74CFF28
S315200018F0BD46BDE889408546704700BF684620F052
S3152000190007018D4689B500AF4FF00700FFF760FF4E
S315200019104FF07D00FFF738FFBD46BDE8894085467C
S31520001920704700BF684620F007018D4689B500AF95
S315200019304FF00800FFF74CFF4FF07E00FFF724FF23
S31520001940BD46BDE889408546704700BF684620F001
S3152000195007018D4689B500AF4FF00900FFF738FF24
S315200019604FF07F00FFF710FFBD46BDE88940854652
S31520001970704700BF684620F007018D4689B500AF45
S315200019804FF00A00FFF724FF4FF08000FFF7FCFE20
S31520001990BD46BDE889408546704700BF684620F0B1
S315200019A007018D4689B500AF4FF00B00FFF710FFFA
S315200019B04FF08100FFF7E8FEBD46BDE88940854629
S315200019C0704700BF684620F007018D4689B500AFF5
S315200019D04FF00C00FFF7FCFE4FF08200FFF7D4FE1D
S315200019E0BD46BDE889408546704700BF684620F061
S315200019F007018D4689B500AF4FF00D00FFF7E8FED1
S31520001A004FF08300FFF7C0FEBD46BDE889408546FE
S31520001A10704700BF684620F007018D4689B500AFA4
S31520001A204FF00E00FFF7D4FE4FF08400FFF7ACFE18
S31520001A30BD46BDE889408546704700BF684620F010
S31520001A4007018D4689B500AF4FF00F00FFF7C0FEA6
S31520001A504FF08500FFF798FEBD46BDE889408546D4
S31520001A60704700BF684620F007018D4689B500AF54
S31520001A704FF01000FFF7ACFE4FF08600FFF784FE14
S31520001A80BD46BDE889408546704700BF684620F0C0
S31520001A9007018D4689B500AF4FF01100FFF798FE7C
S31520001AA04FF08700FFF770FEBD46BDE889408546AA
S31520001AB0704700BF684620F007018D4689B500AF04
S31520001AC04FF01200FFF784FE4FF08800FFF75CFE10
S31520001AD0BD46BDE889408546704700BF684620F070
S31520001AE007018D4689B500AF4FF01300FFF770FE52
S31520001AF04FF08900FFF748FEBD46BDE88940854680
S31520001B00704700BF684620F007018D4689B500AFB3
S31520001B104FF01400FFF75CFE4FF08A00FFF734FE0B
S31520001B20BD46BDE889408546704700BF684620F01F
S31520001B3007018D4689B500AF4FF01500FFF748FE27
S31520001B404FF08B00FFF720FEBD46BDE88940854655
S31520001B50704700BF684620F007018D4689B500AF63
S31520001B604FF01600FFF734FE4FF08C00FFF70CFE07
S31520001B70BD46BDE889408546704700BF684620F0CF
S31520001B8007018D4689B500AF4FF01700FFF720FEFD
S31520001B904FF08D00FFF7F8FDBD46BDE8894085462C
S31520001BA0704700BF684620F007018D4689B500AF13
S31520001BB04FF01800FFF70CFE4FF08E00FFF7E4FD04
S31520001BC0BD46BDE889408546704700BF684620F07F
S31520001BD007018D4689B500AF4FF01900FFF7F8FDD4
S31520001BE04FF08F00FFF7D0FDBD46BDE88940854602
S31520001BF0704700BF684620F007018D4689B500AFC3
S31520001C004FF01A00FFF7E4FD4FF09000FFF7BCFD00
S31520001C10BD46BDE889408546704700BF684620F02E
S31520001C2007018D4689B500AF4FF01B00FFF7D0FDA9
S31520001C304FF09100FFF7A8FDBD46BDE889408546D7
S31520001C40704700BF684620F007018D4689B500AF72
S31520001C504FF01C00FFF7BCFD4FF09200FFF794FDFC
S31520001C60BD46BDE889408546704700BF684620F0DE
S31520001C7007018D4689B500AF4FF01D00FFF7A8FD7F
S31520001C804FF09300FFF780FDBD46BDE889408546AD
S31520001C90704700BF684620F007018D4689B500AF22
S31520001CA04FF01E00FFF794FD4FF09400FFF76CFDF8
S31520001CB0BD46BDE889408546704700BF684620F08E
S31520001CC007018D4689B500AF4FF01F00FFF780FD55
S31520001CD04FF09500FFF758FDBD46BDE88940854683
S31520001CE0704700BF70B542F6C82642F6C825C2F234
S31520001CF00006C2F20005761BB61006D0002455F861
S31520001D00243001349847A642F9D842F6C82542F62F
S31520001D10CC26C2F20005C2F20006761B00F0C8FEF1
S31520001D20B61006D0002455F8243001349847A64230
S31520001D30F9D870BD42F6FC230146C2F200031868AA
S31520001D4000F014BD42F6FC230146C2F200031868D7
S31520001D5000F000B82DE9F04F01F10B04162C83B0EA
S31520001D6006462FD8002310248C422CBF194643F058
S31520001D700101002930D1304600F086FBB4F5FC7F06
S31520001D802ED24FEAD40E42F6F035C2F2000505EB0C
S31520001D90CE02D368934200F006825A6803F1080502
S31520001DA0D968304622F0030C9A6863445C688A60DE
S31520001DB044F00104D1605C6000F068FB284603B063
S31520001DC0BDE8F08F24F00704E30F8C422CBF1946A0
S31520001DD043F001010029CED00C2300253360EDE726
S31520001DE05FEA542E04BF4FEAD40E4FEACE0040F0ED
S31520001DF0908042F6F035C2F200052818C368984252
S31520001E0006D10DE0002A80F26F81DB68984207D068
S31520001E10596821F003010A1B0F2AF3DD0EF1FF3E5C
S31520001E200EF1010E42F6F037C2F2000707F1080163
S31520001E308B68994208BF7A6826D05A6822F0030C2C
S31520001E40C4EB0C020F2A00F39481002AC960896032
S31520001E5080F29980BCF5007F80F065814FEADC0C2A
S31520001E604FF0010A7A6807EBCC004FEAAC0C0AFA6D
S31520001E700CFCD860D0F808804CEA02027A60C3F8DD
S31520001E800880C8F80C3083604FF0010C4FEAAE038F
S31520001E900CFA03FC944500F2828012EA0C0F08D15A
S31520001EA02EF0030E4FEA4C0C0EF1040E12EA0C0F24
S31520001EB0F8D007EBCE09F246C846D8F80C3098453C
S31520001EC007D168E1002A80F27881DB68984500F026
S31520001ED06281586820F00300021B0F2AF2DD1D469E
S31520001EE01F19D3F80CC044F0010E55F8084F3046A0
S31520001EF0BA5042F00102C3F804E0CCF80840C4F816
S31520001F000CC08F60CF607A60B960F96000F0BEFACD
S31520001F1054E7BEF1040F9EBF4FEA941E0EF1380E11
S31520001F204FEACE007FF665AFBEF1140F9CBF0EF1CF
S31520001F305B0E4FEACE007FF65CAFBEF1540F9EBF1C
S31520001F404FEA143E0EF16E0E4FEACE007FF651AFE9
S31520001F50BEF5AA7F9EBF4FEAD43E0EF1770E4FEA1A
S31520001F60CE007FF646AF40F254539E4595BF4FEACA
S31520001F70944E4FF47C700EF17C0E4FF07E0E98BF7F
S31520001F804FEACE0035E703EB0C0203F10805304695
S31520001F90536843F00103536000F078FA0EE7D7F850
S31520001FA00880D8F8043023F00309C4EB09024C4515
S31520001FB094BF002301230F2AD8BF43F00103002B2F
S31520001FC000F0A18043F21C0BD5F80824C2F2000BC6
S31520001FD0DBF8003010331B19B2F1FF3F06D003F5B2
S31520001FE07E631F3323F47E6323F01F031946304696
S31520001FF0019300F04DFA019BB0F1FF3F824600F0BD
S31520002000F48008EB0901814200F2EC80DBF8042021
S315200020109A185145CBF8042000F04581D5F808548C
S3152000202042F6F030C2F20000B5F1FF3F08BFC0F81B
S3152000203008A403D05244511ACBF804101AF007050D
S31520002040304617BFC5F108054FF48055AA4405F55B
S31520002050805553441B051B0DED1A294600F018FA2E
S31520002060B0F1FF3F00F02C81CAEB0001491941F085
S315200020700101DBF8042043F21C03C7F808A0C2F2D2
S315200020800003AA18B845CBF80420CAF8041017D0C4
S31520002090B9F10F0F40F2DF80A9F10C01052521F0DF
S315200020A0070108EB01000F2985604560D8F8040078
S315200020B000F0010041EA0000C8F8040000F2AC80FC
S315200020C0D04643F21C03DBF82C10C2F200038A42EE
S315200020D0DBF8301088BFDA6243F21C03C2F2000339
S315200020E08A4288BF1A6382E05C189A68D9683046AB
S315200020F0666803F108058A6046F00103D1606360D3
S3152000210000F0C4F95AE608EB040342F0010244F059
S3152000211001043046C8F8044008F108055A60BB603F
S3152000212000F0B4F94AE64FEA5C22042A54D9142A6C
S3152000213000F289805B324FEAC208A84442F6F037A3
S31520002140C2F20007D8F80800404503D16FE0806846
S31520002150804504D0426822F003029445F7D3D0F894
S315200021600CC0C3F80CC098607A68C360CCF80830FD
S315200021708AE61F19304644F00104CF605C6003F103
S315200021800805BA5042F001028F607A60B960F960A2
S3152000219000F07CF912E60AF1010A1AF0030F5FD06B
S315200021A003F1080889E603F10802D3689A4208BFBA
S315200021B00EF1020E3FF436AEEFE51D461918DA6829
S315200021C0304655F8083F4C68936044F00104DA60C5
S315200021D04C6000F05BF9F1E54FEA9C1238324FEA89
S315200021E0C208AAE7B8453FF411AFD7F80880D8F857
S315200021F0042022F00302944294BF00230123121BE1
S315200022000F2AD8BF43F00103002B3FF47CAF3046A2
S31520002210002500F03BF9D1E508F10801304601938D
S3152000222000F0A4FA019BD7F808805A6849E74FF0D6
S31520002230010AD7F80480921084460AFA02F248EA84
S3152000224002027A608DE7542A24D84FEA1C326E3275
S315200022504FEAC20871E70123D046CAF80430C6E720
S315200022604A461EF0030F13460EF1FF3E33D053F8B5
S3152000227008299A42F5D07B684FEA4C0C9C453FF6DC
S315200022808EAEBCF1000F3FF48AAE1CEA030F27D0B6
S31520002290D6460EE6B2F5AA7F15D84FEADC3277325B
S315200022A04FEAC20849E70805000D00287FF4B6AEBC
S315200022B0D7F808804B4443F00103C8F8043000E700
S315200022C001210025D5E640F2545082420DD94FF423
S315200022D07C787E2231E77B6823EA0C037B60CBE7A0
S315200022E04FEA4C0C0AF1040ACFE74FEA9C427C32B3
S315200022F04FEAC20821E700BF032A2DE9F0070BD8D1
S315200023003AB1002311F803C000F803C00133934209
S31520002310F8D1BDE8F007704782180C46034603E063
S3152000232014F8011C03F8011C03F003061946A44601
S3152000233001330134002EF3D11CF00304634608BF99
S31520002340C1EB020C68D06542C4F1040A0CEB050708
S3152000235033464FEACA0A5CF805604FEAC408551AA4
S3152000236008E057F8044F264604FA0AF449EA04041A
S31520002370CC5004335C18032D26FA08F9A5F1040580
S315200023800CEB0306EDDC002302E0F15CE1540133A3
S3152000239019199142F9D3BCE753F8404C41F8404C07
S315200023A053F83C4C41F83C4C53F8384C41F8384CE7
S315200023B053F8344C41F8344C53F8304C41F8304CF7
S315200023C053F82C4C41F82C4C53F8284C41F8284C07
S315200023D053F8244C41F8244C53F8204C41F8204C17
S315200023E053F81C4C41F81C4C53F8184C41F8184C27
S315200023F053F8144C41F8144C53F8104C41F8104C37
S3152000240053F80C4C41F80C4C53F8084C41F8084C46
S3152000241053F8044C41F8044C1C460D4640334031D9
S31520002420BCF13F0FACF1400CB6DC21462B46541BC9
S315200024300FE051F8105C43F8105C51F80C5C43F83F
S315200024400C5C51F8085C43F8085C51F8045C43F8CE
S31520002450045C0F2C0D469C4601F1100103F110037C
S31520002460A4F11004E5DCCCEB0201002303E0EC58D8
S315200024704CF8034004335E19032903EB0C04A1F145
S315200024800401F4DC7FE700BF704700BF704700BF40
S3152000249038B543F2A804C2F20004054608460023D4
S315200024A02360FEF737FAB0F1FF3F00D038BD23682E
S315200024B0002BFBD02B6038BD10F0030F10B504465F
S315200024C018BF004611D123682046A3F1013222EA23
S315200024D0030313F0803F08D150F8043FA3F10132E3
S315200024E022EA030313F0803FF6D003781BB110F8DD
S315200024F0013F002BFBD100F003F8204610BD00BFA2
S3152000250080EA0102844612F0030F4FD111F0030F27
S3152000251032D14DF8044D11F0040F51F8043B0BD085
S31520002520A3F101329A4312F0803F04BF4CF8043BDA
S3152000253051F8043B16D100BF51F8044BA3F10132E8
S315200025409A4312F0803FA4F101320BD14CF8043BA0
S31520002550A24312F0803F04BF51F8043B4CF8044BD1
S31520002560EAD023460CF8013B13F0FF0F4FEA332342
S31520002570F8D15DF8044B704711F0010F06D011F821
S31520002580012B0CF8012B002A08BF704711F0020F0F
S31520002590BFD031F8022B12F0FF0F16BF2CF8022BFA
S315200025A08CF8002012F47F4FB3D1704711F8012B1D
S315200025B00CF8012B002AF9D1704700BF20F0030147
S315200025C010F00300C0F1000051F8043B00F1040CA8
S315200025D04FEACC0C6FF000021CBF22FA0CF2134318
S315200025E04FF0010C4CEA0C2C4CEA0C4CA3EB0C02E1
S315200025F022EA030212EACC1204BF51F8043B04304B
S31520002600F4D013F0FF0F1FBF013013F47F4F0130BA
S3152000261013F47F0F18BF0130704700BF30B4134644
S31520002620002A43D041EA000212F0030F25D1032BE2
S3152000263004460D463DD9026809688A4239D1043BD1
S3152000264034D0A2F1013121EA020212F0803F0DD0EE
S315200026502CE022682968A2F101308A4220EA020091
S3152000266027D1043B22D010F0803F1FD104340435FB
S31520002670032BEED820462946F3B10478013B91F886
S3152000268000C064450FD18BB184B1013B002202E02A
S3152000269063B15CB1013B84188D180132647895F8DA
S315200026A001C06445F4D0CCEB040000E0002030BC2F
S315200026B0704720462946E0E7247895F800C0CCEB01
S315200026C00400F4E7F8B542F6F034C2F200040F46EF
S315200026D00546FFF7D9FEA3685E6826F0030606F5D1
S315200026E07E630F33DF1B3F0B013F3F03B7F5805F50
S315200026F007DB00212846FFF7CBFEA368F3188342A9
S3152000270004D02846FFF7C2FE0020F8BD79422846AD
S31520002710FFF7BEFEB0F1FF3F10D0A26843F22003C0
S31520002720C2F20003F61B46F00106284656601A68D8
S31520002730D71B1F60FFF7AAFE0120F8BD00212846FF
S31520002740FFF7A6FEA368C21A0F2ADADD42F6F8744E
S3152000275043F22001C2F20004C2F2000142F001025B
S315200027602468001B08605A60CBE700BF2DE9F041C2
S3152000277005460C46002900F08880FFF785FEA4F167
S31520002780080242F6F0305668C2F2000026F0010335
S31520002790D0F808C0D1188C454F6827F0030700F001
S315200027A0958016F001064F605FD00026CC1964682C
S315200027B014F0010F06D1DB19002E7AD08C68C96877
S315200027C08C60E16043F00101D3505160002E47D167
S315200027D0B3F5007F5BD3590A04299EBF4FEA931CA9
S315200027E00CF1380C4FEACC0428D914299CBF01F1EE
S315200027F05B0C4FEACC0421D954299EBF4FEA133CE7
S315200028000CF16E0C4FEACC0418D9B1F5AA7F9EBF05
S315200028104FEAD33C0CF1770C4FEACC040ED940F2A8
S31520002820545C614595BF4FEA934C4FF47C740CF190
S315200028307C0C4FF07E0C98BF4FEACC040419A1689B
S31520002840A14203D164E089688C4204D0486820F014
S3152000285003008342F7D3CB68D3609160CA609A6045
S315200028602846BDE8F041FFF711BE54F8084C00F1A8
S31520002870080C121B1B199468644547D0D2F80CC06B
S31520002880CCF80840C4F80CC090E7BDE8F081DB081E
S315200028904FF0010C466800EBC3019B100CFA03F3C2
S315200028A0D1608C6846EA030343609460E2608A60E4
S315200028B0D6E78C681C4FBC4281D1D35043F001032C
S315200028C0E260A26053609460D460C9E7FB1816F0FA
S315200028D0010F07D154F8081C521A5B18D468916866
S315200028E0A160CC6042F6FC718260C2F2000143F026
S315200028F0010050600A689342B2D343F21C03284673
S31520002900C2F200031968FFF7DDFEA9E701264DE7AD
S31520002910012644684FEAAC0C0B4606FA0CFC44EA46
S315200029200C04446098E700BFF82B00204144434440
S315200029306972656374496E7075745F3000000000BB
S31520002940300000002C0000000D0A00004865617070
S3152000295020616E6420737461636B20636F6C6C6995
S3152000296073696F6E0A000000003001400430014098
S31520002970083001400C300140103001401430014035
S31520002980183001401C3001402030014024300140E5
S31520002990283001402C300140303001403430014095
S315200029A0383001403C300140403001404430014045
S315200029B0483001404C3001405030014054300140F5
S315200029C0583001405C3001406030014064300140A5
S315200029D0683001406C300140703001407430014055
S315200029E0783001407C300140200021002200230065
S315200029F02400250026002700280029002A002B0075
S31520002A002C002D002E002F00300031003200330024
S31520002A103400350036003700380039003A003B00D4
S31520002A203C003D003E003F00010000000200000087
S31520002A3004000000010000004144434469726563BC
S31520002A4074496E7075745F3000000000000000014C
S31520002A50020000010200000000FFFF00000000014C
S31520002A60020000010200000000FFFF00000000013C
S31520002A7002FFFFFFFF00000000FFFF00FF00000035
S31520002A800001010101FFFFFFFFFFFFFFFF0202021E
S31520002A900203030303FFFFFFFFFFFFFFFF040404FE
S31520002AA004FFFFFFFFFFFFFFFFFFFFFF43000000C4
S31520002AB0F8B500BFF8BC08BC9E467047F8B500BF05
S31520002AC0F8BC08BC9E46704785040020710400208F
S31520002AD00000000040787D0140787D01105E5F0097
S31520002AE0105E5F00105E5F00105E5F00382A0020D7
S31520002AF00B0010000000000000000000002B00204A
S31520002B00000000000000000000000000000000009F
S31520002B10000000000000000000000000000000008F
S31520002B20AC2A002000000000000000000000000089
S31520002B30000000000000000000000000000000006F
S31520002B40000000000000000000000000000000005F
S31520002B50000000000000000000000000000000004F
S31520002B60000000000000000000000000000000003F
S31520002B70000000000000000000000000000000002F
S31520002B80000000000000000000000000000000001F
S31520002B90000000000000000000000000000000000F
S31520002BA000000000000000000000000000000000FF
S31520002BB000000000000000000000000000000000EF
S31520002BC000000000000000000000000000000000DF
S31520002BD000000000000000000000000000000000CF
S31520002BE000000000000000000000000000000000BF
S31520002BF00000000000000000F02B0020F02B002039
S31520002C00F82B0020F82B0020002C0020002C002080
S31520002C10082C0020082C0020102C0020102C00202E
S31520002C20182C0020182C0020202C0020202C0020DE
S31520002C30282C0020282C0020302C0020302C00208E
S31520002C40382C0020382C0020402C0020402C00203E
S31520002C50482C0020482C0020502C0020502C0020EE
S31520002C60582C0020582C0020602C0020602C00209E
S31520002C70682C0020682C0020702C0020702C00204E
S31520002C80782C0020782C0020802C0020802C0020FE
S31520002C90882C0020882C0020902C0020902C0020AE
S31520002CA0982C0020982C0020A02C0020A02C00205E
S31520002CB0A82C0020A82C0020B02C0020B02C00200E
S31520002CC0B82C0020B82C0020C02C0020C02C0020BE
S31520002CD0C82C0020C82C0020D02C0020D02C00206E
S31520002CE0D82C0020D82C0020E02C0020E02C00201E
S31520002CF0E82C0020E82C0020F02C0020F02C0020CE
S31520002D00F82C0020F82C0020002D0020002D00207B
S31520002D10082D0020082D0020102D0020102D002029
S31520002D20182D0020182D0020202D0020202D0020D9
S31520002D30282D0020282D0020302D0020302D002089
S31520002D40382D0020382D0020402D0020402D002039
S31520002D50482D0020482D0020502D0020502D0020E9
S31520002D60582D0020582D0020602D0020602D002099
S31520002D70682D0020682D0020702D0020702D002049
S31520002D80782D0020782D0020802D0020802D0020F9
S31520002D90882D0020882D0020902D0020902D0020A9
S31520002DA0982D0020982D0020A02D0020A02D002059
S31520002DB0A82D0020A82D0020B02D0020B02D002009
S31520002DC0B82D0020B82D0020C02D0020C02D0020B9
S31520002DD0C82D0020C82D0020D02D0020D02D002069
S31520002DE0D82D0020D82D0020E02D0020E02D002019
S31520002DF0E82D0020E82D0020F02D0020F02D0020C9
S31520002E00F82D0020F82D0020002E0020002E002076
S31520002E10082E0020082E0020102E0020102E002024
S31520002E20182E0020182E0020202E0020202E0020D4
S31520002E30282E0020282E0020302E0020302E002084
S31520002E40382E0020382E0020402E0020402E002034
S31520002E50482E0020482E0020502E0020502E0020E4
S31520002E60582E0020582E0020602E0020602E002094
S31520002E70682E0020682E0020702E0020702E002044
S31520002E80782E0020782E0020802E0020802E0020F4
S31520002E90882E0020882E0020902E0020902E0020A4
S31520002EA0982E0020982E0020A02E0020A02E002054
S31520002EB0A82E0020A82E0020B02E0020B02E002004
S31520002EC0B82E0020B82E0020C02E0020C02E0020B4
S31520002ED0C82E0020C82E0020D02E0020D02E002064
S31520002EE0D82E0020D82E0020E02E0020E02E002014
S31520002EF0E82E0020E82E0020F02E0020F02E0020C4
S31520002F00F82E0020F82E0020002F0020002F002071
S31520002F10082F0020082F0020102F0020102F00201F
S31520002F20182F0020182F0020202F0020202F0020CF
S31520002F30282F0020282F0020302F0020302F00207F
S31520002F40382F0020382F0020402F0020402F00202F
S31520002F50482F0020482F0020502F0020502F0020DF
S31520002F60582F0020582F0020602F0020602F00208F
S31520002F70682F0020682F0020702F0020702F00203F
S31520002F80782F0020782F0020802F0020802F0020EF
S31520002F90882F0020882F0020902F0020902F00209F
S31520002FA0982F0020982F0020A02F0020A02F00204F
S31520002FB0A82F0020A82F0020B02F0020B02F0020FF
S31520002FC0B82F0020B82F0020C02F0020C02F0020AF
S31520002FD0C82F0020C82F0020D02F0020D02F00205F
S31520002FE0D82F0020D82F0020E02F0020E02F00200F
S31520002FF0E82F0020E82F0020FFFFFFFF000002003F
S705200002993F
